{
  "abi": [
    {
      "type": "constructor",
      "inputs": [
        {
          "name": "_bitcoinLightClient",
          "type": "address",
          "internalType": "address"
        }
      ],
      "stateMutability": "nonpayable"
    },
    {
      "type": "function",
      "name": "bitcoinLightClient",
      "inputs": [],
      "outputs": [
        {
          "name": "",
          "type": "address",
          "internalType": "contract IBitcoinLightClient"
        }
      ],
      "stateMutability": "view"
    },
    {
      "type": "function",
      "name": "fullfill",
      "inputs": [
        {
          "name": "_requestId",
          "type": "uint256",
          "internalType": "uint256"
        },
        {
          "name": "_blockNumber",
          "type": "uint256",
          "internalType": "uint256"
        },
        {
          "name": "_wtxId",
          "type": "bytes32",
          "internalType": "bytes32"
        },
        {
          "name": "_proof",
          "type": "bytes",
          "internalType": "bytes"
        },
        {
          "name": "_index",
          "type": "uint256",
          "internalType": "uint256"
        }
      ],
      "outputs": [],
      "stateMutability": "nonpayable"
    },
    {
      "type": "function",
      "name": "generateRequest",
      "inputs": [
        {
          "name": "amount",
          "type": "uint256",
          "internalType": "uint256"
        },
        {
          "name": "reciever",
          "type": "string",
          "internalType": "string"
        }
      ],
      "outputs": [],
      "stateMutability": "payable"
    },
    {
      "type": "function",
      "name": "getRequest",
      "inputs": [
        {
          "name": "_id",
          "type": "uint256",
          "internalType": "uint256"
        }
      ],
      "outputs": [
        {
          "name": "req_",
          "type": "tuple",
          "internalType": "struct Request",
          "components": [
            {
              "name": "requestor",
              "type": "address",
              "internalType": "address"
            },
            {
              "name": "reciever",
              "type": "string",
              "internalType": "string"
            },
            {
              "name": "amount",
              "type": "uint256",
              "internalType": "uint256"
            },
            {
              "name": "generationTimestamp",
              "type": "uint256",
              "internalType": "uint256"
            },
            {
              "name": "status",
              "type": "uint8",
              "internalType": "enum Status"
            }
          ]
        }
      ],
      "stateMutability": "view"
    },
    {
      "type": "function",
      "name": "lockedFunds",
      "inputs": [
        {
          "name": "",
          "type": "uint256",
          "internalType": "uint256"
        }
      ],
      "outputs": [
        {
          "name": "requestor",
          "type": "address",
          "internalType": "address"
        },
        {
          "name": "reciever",
          "type": "string",
          "internalType": "string"
        },
        {
          "name": "amount",
          "type": "uint256",
          "internalType": "uint256"
        },
        {
          "name": "generationTimestamp",
          "type": "uint256",
          "internalType": "uint256"
        },
        {
          "name": "status",
          "type": "uint8",
          "internalType": "enum Status"
        }
      ],
      "stateMutability": "view"
    },
    {
      "type": "function",
      "name": "requests",
      "inputs": [
        {
          "name": "",
          "type": "uint256",
          "internalType": "uint256"
        }
      ],
      "outputs": [
        {
          "name": "requestor",
          "type": "address",
          "internalType": "address"
        },
        {
          "name": "reciever",
          "type": "string",
          "internalType": "string"
        },
        {
          "name": "amount",
          "type": "uint256",
          "internalType": "uint256"
        },
        {
          "name": "generationTimestamp",
          "type": "uint256",
          "internalType": "uint256"
        },
        {
          "name": "status",
          "type": "uint8",
          "internalType": "enum Status"
        }
      ],
      "stateMutability": "view"
    },
    {
      "type": "function",
      "name": "revokeRequest",
      "inputs": [
        {
          "name": "_requestId",
          "type": "uint256",
          "internalType": "uint256"
        }
      ],
      "outputs": [],
      "stateMutability": "nonpayable"
    },
    {
      "type": "event",
      "name": "GenerateRequest",
      "inputs": [
        {
          "name": "amount",
          "type": "uint256",
          "indexed": false,
          "internalType": "uint256"
        },
        {
          "name": "receiver",
          "type": "string",
          "indexed": false,
          "internalType": "string"
        }
      ],
      "anonymous": false
    },
    {
      "type": "event",
      "name": "ReleaseFunds",
      "inputs": [
        {
          "name": "requestId",
          "type": "uint256",
          "indexed": false,
          "internalType": "uint256"
        },
        {
          "name": "user",
          "type": "address",
          "indexed": false,
          "internalType": "address"
        }
      ],
      "anonymous": false
    },
    {
      "type": "event",
      "name": "RequestFulfilled",
      "inputs": [
        {
          "name": "isIncluded",
          "type": "bool",
          "indexed": false,
          "internalType": "bool"
        }
      ],
      "anonymous": false
    },
    {
      "type": "event",
      "name": "RequestRevoked",
      "inputs": [
        {
          "name": "requestId",
          "type": "uint256",
          "indexed": false,
          "internalType": "uint256"
        }
      ],
      "anonymous": false
    }
  ],
  "bytecode": {
    "object": "0x6080604052348015600e575f5ffd5b50604051610e9d380380610e9d833981016040819052602b91604e565b5f80546001600160a01b0319166001600160a01b03929092169190911790556079565b5f60208284031215605d575f5ffd5b81516001600160a01b03811681146072575f5ffd5b9392505050565b610e17806100865f395ff3fe60806040526004361061006e575f3560e01c8063c58343ef1161004c578063c58343ef146100df578063ddf76ed21461010b578063e7d915cf14610141578063f850fc8414610160575f5ffd5b80631eb0cd0c1461007257806381d12c5814610087578063c53fff8a146100c0575b5f5ffd5b610085610080366004610971565b61017f565b005b348015610092575f5ffd5b506100a66100a1366004610a2e565b6102cc565b6040516100b7959493929190610abc565b60405180910390f35b3480156100cb575f5ffd5b506100a66100da366004610a2e565b61038f565b3480156100ea575f5ffd5b506100fe6100f9366004610a2e565b6103bb565b6040516100b79190610b04565b348015610116575f5ffd5b505f54610129906001600160a01b031681565b6040516001600160a01b0390911681526020016100b7565b34801561014c575f5ffd5b5061008561015b366004610a2e565b6104ca565b34801561016b575f5ffd5b5061008561017a366004610b61565b610689565b8134146101cb5760405162461bcd60e51b8152602060048201526015602482015274139bdd08195b9bdd59da08199d5b991cc81cd95b9d605a1b60448201526064015b60405180910390fd5b60038054905f6101da83610bf3565b90915550506040805160a0810182523381526020810183905290810183905242606082015260808101600190526003545f908152600260209081526040909120825181546001600160a01b0319166001600160a01b039091161781559082015160018201906102499082610c9b565b5060408201518160020155606082015181600301556080820151816004015f6101000a81548160ff0219169083600281111561028757610287610a88565b02179055509050507f519f79d89066613e5a50ec441d49871f802c28dfc12964c26016daf7eec0a9e782826040516102c0929190610d56565b60405180910390a15050565b60026020525f9081526040902080546001820180546001600160a01b0390921692916102f790610c17565b80601f016020809104026020016040519081016040528092919081815260200182805461032390610c17565b801561036e5780601f106103455761010080835404028352916020019161036e565b820191905f5260205f20905b81548152906001019060200180831161035157829003601f168201915b50505050600283015460038401546004909401549293909290915060ff1685565b600160208190525f9182526040909120805491810180546001600160a01b03909316926102f790610c17565b6103c3610919565b5f82815260026020908152604091829020825160a0810190935280546001600160a01b0316835260018101805491928401916103fe90610c17565b80601f016020809104026020016040519081016040528092919081815260200182805461042a90610c17565b80156104755780601f1061044c57610100808354040283529160200191610475565b820191905f5260205f20905b81548152906001019060200180831161045857829003601f168201915b5050509183525050600282810154602083015260038301546040830152600483015460609092019160ff16908111156104b0576104b0610a88565b60028111156104c1576104c1610a88565b90525092915050565b5f6104d4826103bb565b80519091506001600160a01b031633146105265760405162461bcd60e51b81526020600482015260136024820152722ab71030ba3437b934b9b2b21031b0b63632b960691b60448201526064016101c2565b6002608082018190525f838152602091825260409020825181546001600160a01b0319166001600160a01b0390911617815590820151829190600182019061056e9082610c9b565b5060408201518160020155606082015181600301556080820151816004015f6101000a81548160ff021916908360028111156105ac576105ac610a88565b021790555050815160408084015190515f935083926001600160a01b031691908381818185875af1925050503d805f8114610602576040519150601f19603f3d011682016040523d82523d5f602084013e610607565b606091505b5091509150816106505760405162461bcd60e51b81526020600482015260146024820152734661696c656420746f2073656e642066756e647360601b60448201526064016101c2565b6040518481527fda2b341350b6f60cb4f4e43ed3551c3c42d5f19d283e69c3f6152e832b3488919060200160405180910390a150505050565b5f80546040516327fe9a2560e11b81526001600160a01b0390911690634ffd344a906106c19089908990899089908990600401610d76565b602060405180830381865afa1580156106dc573d5f5f3e3d5ffd5b505050506040513d601f19601f820116820180604052508101906107009190610dbb565b90508061074f5760405162461bcd60e51b815260206004820152601860248201527f5472616e73616374696f6e206e6f7420696e636c75646564000000000000000060448201526064016101c2565b60405181151581527fde83b1ddc28e70c834c847ffa586c62f09744040e7178702245399d3cc84df499060200160405180910390a161078e8733610797565b50505050505050565b5f6107a1836103bb565b90505f60808201819052505f838152600260209081526040909120825181546001600160a01b0319166001600160a01b039091161781559082015182919060018201906107ee9082610c9b565b5060408201518160020155606082015181600301556080820151816004015f6101000a81548160ff0219169083600281111561082c5761082c610a88565b0217905550505060408082015190515f9081906001600160a01b0386169084908381818185875af1925050503d805f8114610882576040519150601f19603f3d011682016040523d82523d5f602084013e610887565b606091505b5091509150816108d05760405162461bcd60e51b81526020600482015260146024820152734661696c656420746f2073656e642066756e647360601b60448201526064016101c2565b604080518781526001600160a01b03871660208201527f8b353b1d2ca6ba6d50b3ef0d7fc08cfd9cfbd7663f4e217ebb480e754153c57e910160405180910390a1505050505050565b6040518060a001604052805f6001600160a01b03168152602001606081526020015f81526020015f81526020015f600281111561095857610958610a88565b905290565b634e487b7160e01b5f52604160045260245ffd5b5f5f60408385031215610982575f5ffd5b82359150602083013567ffffffffffffffff81111561099f575f5ffd5b8301601f810185136109af575f5ffd5b803567ffffffffffffffff8111156109c9576109c961095d565b604051601f8201601f19908116603f0116810167ffffffffffffffff811182821017156109f8576109f861095d565b604052818152828201602001871015610a0f575f5ffd5b816020840160208301375f602083830101528093505050509250929050565b5f60208284031215610a3e575f5ffd5b5035919050565b5f81518084525f5b81811015610a6957602081850181015186830182015201610a4d565b505f602082860101526020601f19601f83011685010191505092915050565b634e487b7160e01b5f52602160045260245ffd5b60038110610ab857634e487b7160e01b5f52602160045260245ffd5b9052565b6001600160a01b038616815260a0602082018190525f90610adf90830187610a45565b9050846040830152836060830152610afa6080830184610a9c565b9695505050505050565b602080825282516001600160a01b03168282015282015160a060408301525f90610b3160c0840182610a45565b905060408401516060840152606084015160808401526080840151610b5960a0850182610a9c565b509392505050565b5f5f5f5f5f5f60a08789031215610b76575f5ffd5b863595506020870135945060408701359350606087013567ffffffffffffffff811115610ba1575f5ffd5b8701601f81018913610bb1575f5ffd5b803567ffffffffffffffff811115610bc7575f5ffd5b896020828401011115610bd8575f5ffd5b96999598509396602090940195946080909401359392505050565b5f60018201610c1057634e487b7160e01b5f52601160045260245ffd5b5060010190565b600181811c90821680610c2b57607f821691505b602082108103610c4957634e487b7160e01b5f52602260045260245ffd5b50919050565b601f821115610c9657805f5260205f20601f840160051c81016020851015610c745750805b601f840160051c820191505b81811015610c93575f8155600101610c80565b50505b505050565b815167ffffffffffffffff811115610cb557610cb561095d565b610cc981610cc38454610c17565b84610c4f565b6020601f821160018114610cfb575f8315610ce45750848201515b5f19600385901b1c1916600184901b178455610c93565b5f84815260208120601f198516915b82811015610d2a5787850151825560209485019460019092019101610d0a565b5084821015610d4757868401515f19600387901b60f8161c191681555b50505050600190811b01905550565b828152604060208201525f610d6e6040830184610a45565b949350505050565b85815284602082015260806040820152826080820152828460a08301375f60a084830101525f60a0601f19601f86011683010190508260608301529695505050505050565b5f60208284031215610dcb575f5ffd5b81518015158114610dda575f5ffd5b939250505056fea26469706673582212204e22607f443fe10b4c7e6784069e9e9e75edee3cd7b6d22b421480b126b5cc4464736f6c634300081c0033",
    "linkReferences": {}
  },
  "methodIdentifiers": {
    "bitcoinLightClient()": "ddf76ed2",
    "fullfill(uint256,uint256,bytes32,bytes,uint256)": "f850fc84",
    "generateRequest(uint256,string)": "1eb0cd0c",
    "getRequest(uint256)": "c58343ef",
    "lockedFunds(uint256)": "c53fff8a",
    "requests(uint256)": "81d12c58",
    "revokeRequest(uint256)": "e7d915cf"
  },
  "id": 4
}